:020000040800F2
:10000000D806002089010008B1190008A9190008C4
:10001000AD19000845020008D119000800000000D1
:10002000000000000000000000000000B9190008F6
:100030004902000800000000B5190008BD190008B9
:10004000A3010008A3010008A3010008A301000800
:10005000A3010008A3010008A3010008A3010008F0
:10006000A3010008A3010008A3010008A3010008E0
:10007000A3010008A3010008A3010008A3010008D0
:10008000A3010008A3010008A3010008A3010008C0
:10009000C5190008A3010008A3010008A301000876
:1000A000A3010008A3010008A3010008A3010008A0
:1000B000A3010008A3010008A3010008A301000890
:1000C000A3010008A3010008A3010008A301000880
:1000D000A3010008A3010008A3010008A301000870
:1000E000A3010008A3010008A301000800F002F822
:1000F00000F03AF80AA090E8000C82448344AAF188
:100100000107DA4501D100F02FF8AFF2090EBAE885
:100110000F0013F0010F18BFFB1A43F0010318473B
:10012000E81D0000081E0000103A24BF78C878C1FE
:10013000FAD8520724BF30C830C144BF04680C60ED
:10014000704700000023002400250026103A28BF35
:1001500078C1FBD8520728BF30C148BF0B60704739
:100160001FB51FBD10B510BD00F031F81146FFF7E7
:10017000F7FF01F02FFC00F04FF803B4FFF7F2FF98
:1001800003BC00F057F800000948804709480047C1
:10019000FEE7FEE7FEE7FEE7FEE7FEE7FEE7FEE737
:1001A000FEE7FEE704480549054A064B7047000094
:1001B000C1190008ED000008D8000020D806002072
:1001C000D8020020D802002070477047704775465B
:1001D00000F02CF8AE4605006946534620F00700B3
:1001E000854618B020B5FFF7DDFFBDE820404FF091
:1001F00000064FF000074FF000084FF0000BAC4630
:10020000ACE8C009ACE8C009ACE8C009ACE8C0097A
:1002100021F007018D46704710B50446AFF300800A
:100220002046BDE81040FFF7A8BF00000048704717
:100230001800002001491820ABBEFEE7260002008E
:1002400070470000FEE700007047000070B542F202
:100250000C060446C4F2020601F018F83168C9071A
:1002600018D13068800644BF202030603068C00656
:1002700007D43069C00704D1306840075CBF002054
:1002800070BD3068C00623D40020316849072BD4E4
:1002900034E000BF002C47D00546601C0ED130680A
:1002A000C007DED03068C0071CBF30685FEAC0708E
:1002B000D7D03068C007F2D1D3E700BF00F0E6FF27
:1002C000401BA04230D83068C007F7D1C9E700BF53
:1002D00040F2B000C2F20000C16941F00201C16108
:1002E00010203168490709D540F2B001C2F200017F
:1002F000CA6940F0040042F00102CA613169C907CD
:1003000002D13060012070BD40F2B001C2F20001A4
:10031000CA6942F00402CA61316921F00101316108
:100320003060012070BD00BF032070BD90F8202018
:10033000013A012A08D8006800F11402002013686D
:1003400019431160704700BF00F1240201204FF4EF
:1003500080211368194311607047000010B590F8B0
:1003600020E0D0F800C0AEF1010EBEF1010FDCF8C4
:1003700008E011D81EF0E05F18D0CEF3016E012026
:1003800000FA0EF018608B68D3B14868CC6844EA74
:10039000C000034318E000BF00F1240101204FF426
:1003A00080220B681A430A6010BD00BF00F12401CF
:1003B00001204FF400120B681A430A6010BD00BF01
:1003C0000868CB6843EA40530CEB0E10C0F880314C
:1003D0000B69C0F88431097D012905D100F5C2718E
:1003E0000B6843F480730B605168C0F88C1112687D
:1003F00000F5C071C0F88821002001220B681A4363
:100400000A6010BDB0B5026890F82030013B012BA6
:1004100028D8D2F80002012340F00100C2F80002FF
:10042000D1F814E0CC690EF01F0003FA00F0D2F806
:100430001C326FEA000C8343012CC2F81C3217D027
:100440006CBBD2F80C3203EA0C03C2F80C32CB6856
:100450008C8844EA034302EBCE04C4F840320B46D6
:1004600015E000BF416A41F4802141620120B0BD26
:10047000D2F80C320343C2F80C320B688C8844EA81
:10048000034302EBCE04C4F8403201F10C038C6844
:100490001B8843EA044302EBCE04C4F84432D2F88A
:1004A00004328D6943EA0004D1F810E0096A002D96
:1004B00008BF03EA0C04C2F80442D2F81432BEF1B9
:1004C000000F43EA000408BF03EA0C040129C2F844
:1004D000144204D1D2F81C120843C2F81C02D2F80C
:1004E000000220F00100C2F800020020B0BD0000B0
:1004F0007047000010B590F82040013C012C7BD8DB
:10050000D0F800C0002900F08180DCF81040A4077A
:1005100000F081800CEB011CDCF8B0410CF5D87EBA
:1005200014F004049460DCF8B04119BFE40854608E
:10053000640D1460DEF800400CF5DA7E04F002046D
:10054000D460DCF8B44124075ABFDEF8004004F060
:100550000F0408241461DEF800400029C4F30724C6
:100560009461DEF800404FEA14445461DCF8B8218D
:100570001A70026802EB0112D2F8B8214FEA122277
:100580005A70026802EB0112D2F8B8214FEA124207
:100590009A70026802EB0112D2F8B8214FEA126297
:1005A000DA70026802EB0112D2F8BC211A710268FB
:1005B00002EB0112D2F8BC214FEA12225A710268F2
:1005C00002EB0112D2F8BC214FEA12429A71026882
:1005D00002EB0112D2F8BC214FEA1262DA71006814
:1005E00014BF00F1100100F10C01002020220B6863
:1005F0001A430A6010BD00BF00F1240101204FF42E
:1006000080220B681A430A6010BD00BFDCF80C4062
:10061000A4077FF47FAF00F1240101204FF4001202
:100620000B681A430A6010BD2DE9F04F81B00446F3
:1006300000684669D0F804908768D0F80CB0D0F80C
:1006400010A0D0F81880F10704D1002530071DD480
:1006500024E000BFF90710D00121BA07816009D456
:10066000780700F1AF80380700F1B680204600F02F
:1006700001FC02E0204600F0FFFB0025F80500F138
:100680008780F80300F1B180300707D51BF0100018
:1006900004D0206845F400751021C160700708D5AA
:1006A0001BF0080005D020680821C160204600F03A
:1006B000ABF9B00706D52068C068800702D0204695
:1006C00000F0A4F9700607D51AF0100004D02068D5
:1006D00045F4806510210161B00608D51AF00800C4
:1006E00005D0206808210161204600F08FFBF0064C
:1006F00006D520680069800702D0204600F088FBFC
:10070000B00308D519F0100005D020681021416011
:10071000204600F07FFBF00308D519F0080005D053
:10072000206808214160204600F0B0FB300440F111
:100730009B805FEA497040F1948006F4807008EA7B
:10074000102028435FEA8871014648BF41F002014A
:10075000B20558BF01465FEA48700D4648BF45F0F4
:100760000405700558BF0D46300540F17A8018F039
:10077000700000F076801038000905286CD8DFE89A
:1007800000F003595D61656945F0080564E000BF4C
:1007900020684FF48071BA0581600BD4780515D4B8
:1007A00038051DD4204600F069FBF8037FF56CAFD7
:1007B0001BE000BF204600F063FBF8037FF564AF49
:1007C00013E000BF4FF4006558E700BF05F5005582
:1007D000F8037FF559AF08E04FF480554EE700BFAE
:1007E00005F58045F8037FF54FAF20684FF4803161
:1007F000BA0381600AD4780310D4380314D4204695
:1008000000F040FB30073FF541AF47E7204600F0DE
:100810003BFB30073FF53AAF40E700BF05F5004529
:1008200030073FF533AF39E705F5803530073FF541
:100830002DAF33E745F010050EE000BF45F0200571
:100840000AE000BF45F0400506E000BF45F0800526
:1008500002E000BF45F480752068816921F07001D5
:10086000816120680421416055B1606A40EA050158
:100870002046616201B0BDE8F04FFFF739BE00BF0E
:1008800001B0BDE8F08F0000B0B5C8B1044690F8E3
:10089000200010B9204600F071F82068016841F08E
:1008A0000101016000F0F2FC054600BF20684168CC
:1008B000C90707D100F0EAFC401B0B28F6D312E071
:1008C0000120B0BD016821F00201016000F0DEFCF2
:1008D000054600BF2068416889070DD500F0D6FCA9
:1008E000401B0B28F6D3606A052140F4003060629B
:1008F000012084F82010B0BD217E0268012922F079
:10090000800208BF80320260617E0268012922F005
:10091000400208BF40320260A17E0268012922F035
:10092000200208BF20320260E17E0268012922F025
:10093000100218BF10320260217F0268012922F0E4
:10094000080208BF08320260617F0268012922F0B4
:10095000040208BF04320260D4E901C2D4E90335BD
:1009600061691A432A431143ACF101021143C16189
:1009700000200121606284F82010B0BDB0B586B0BF
:1009800040F60004C4F201040068A4F524420021EA
:100990009042059102D006B0B0BD00BF41F21800F0
:1009A000C4F20200426802AD42F000724260426846
:1009B00002F000720192019A026842F004020260A1
:1009C000006800F00400019001984FF40060CDE948
:1009D000020104912046294600F04AFB4FF4805062
:1009E000029002200390032005902046294600F043
:1009F0003FFB14200021002200F0CAFC142000F06C
:100A0000B3FC06B0B0BD0000704700002DE9F04F08
:100A100091B06C4603AA00212346FFF76BFDDDF879
:100A20000CE040F2780ABEF1010FC2F2000A0DD1CB
:100A30000798411E4AB2002A58D4DAF80C20CBB2EB
:100A4000032B00F0030C05D2012330E09AF80000DC
:100A50004FE000BF00F0FC05002601234FF06408C2
:100A60004FF47A7942F2107B4F1EC8B2FFB2205C7D
:100A7000E75D03FB002003FB07F28F1EFFB2E75D7B
:100A800002EB820200EB420003FB07F2CF1EFFB233
:100A9000E75D02FB080003FB07F2043602FB0902D4
:100AA000F0B203FB0BF3A842A1F10401DCD1BCF1CD
:100AB000000F19D0C8B2205CBCF1010F03FB00226B
:100AC00012D0481EC0B2205CBCF1020F03FB00F044
:100AD00000EB800002EB400206D0881EC0B2205C12
:100AE0006421584300FB0122CAF80C2001208AF837
:100AF0000000BEF1020F08BF012803D011B0BDE80D
:100B0000F08F00BF40F20009C2F20009D9F80800D6
:100B1000DAF80C10B1EBC00F40D9079D00F090FA45
:100B2000F8B94FF6FE70054219D0BAF80800C5F3BF
:100B30004E050134D9F8041034F8012C80B2014478
:100B40000120002300F026FA58B9BAF80800013D48
:100B500000F1020004F10204AAF80800EAD100F052
:100B60000FFADAF80C0001F0C5F8BAF8065004469E
:100B700099F8008028466F1C01F0D4F8214600F057
:100B8000DBFF0021C4F2C82101F0E0F801F096F883
:100B900031281FDC10B3192820D022E064205246EF
:100BA00002F8020F4FF480700B90012000210C908E
:100BB000CDE90D110F908DF8401002F10E000BA938
:100BC0000AABFFF7CBFB08B3EFF3108072B600BFA0
:100BD000FEE700BF4B2801D0322802D1804540F00B
:100BE000C680B8B2AE1C01F09DF8214600F0A4FF0B
:100BF0000021C4F2C82101F0A9F801F05FF8312802
:100C000030DC98B3192831D033E000BF079D00F0E5
:100C100017FA00BB4FF6FE7005421AD0BAF808006A
:100C2000C5F34E05013400BFD9F8041034F8012C87
:100C300080B201440120002300F0ACF958B9BAF8A1
:100C40000800013D00F1020004F10204AAF80800C6
:100C5000EAD100F095F901208AF8010011B0BDE851
:100C6000F08F00BF4B2801D0322802D1804540F0E0
:100C70007D80B0B2EF1C01F055F8214600F05CFF1A
:100C80000021C4F2C82101F061F801F017F8312801
:100C900004DC38B1192805D006E000BF4B2801D08C
:100CA000322801D1804562D1B8B22E1D01F03AF848
:100CB000214600F041FF0021C4F2C82101F046F8AE
:100CC00000F0FCFF312803DC30B1192804D005E026
:100CD0004B2801D0322801D1804547D1B0B26F1DD9
:100CE00001F020F8214600F027FF0021C4F2C821BE
:100CF00001F02CF800F0E2FF312803DC30B11928B4
:100D000004D005E04B2801D0322801D180452ED1F6
:100D1000B8B2AE1D01F006F8214600F00DFF00212B
:100D2000C4F2C82101F012F800F0C8FF312803DC3A
:100D300030B1192804D005E04B2801D0322801D168
:100D4000804513D1B0B2EF1D00F0ECFF214600F05A
:100D5000F3FE0021C4F2C82100F0F8FF00F0AEFF5E
:100D6000312821DC20B3192822D023E0374652460F
:100D700002F8020F89F800004FF480700B900120F8
:100D800000210C90CDE90D110F908DF8401002F16B
:100D90000E000BA90AAB9780FFF7E0FA30B3EFF330
:100DA000108072B6FEE700BF4B2801D0322801D177
:100DB0008045DCD1B8B2083500F0B4FF214600F020
:100DC000BBFE0021C4F2C82100F0C0FF00F076FF96
:100DD000312803DC30B1192804D005E04B2801D0BC
:100DE000322801D180450FD1AAF80650D9F8080061
:100DF000BAF804100130C9F80800481CAAF8040029
:100E000011B0BDE8F08F00BF2F46B0E7704700007B
:100E10007047000070470000B0B5044690F820000D
:100E200001281DD1022084F820002068016821F0EB
:100E30000101016000F02AFA054600BF2068406801
:100E4000C00713D000F022FA401B0B28F6D3606ACB
:100E500040F400306062052084F820000120B0BD1D
:100E6000606A40F4002060620120B0BD0020606232
:100E7000B0BD0000704700007047000070470000E0
:100E80007047000070470000704700007047000086
:100E90002DE9F04381B040F2B006C2F20006327E86
:100EA000012A03D1022001B0BDE8F08305460120EC
:100EB0002C6830764CF250308846FFF7C7F9022C88
:100EC0001CD100284ED1002042F21004F061C4F27F
:100ED0000204206840F004002060206840F04000D8
:100EE00020604CF25030FFF7B1F9216821F0040185
:100EF00021600021317601B0BDE8F08390BB4FF056
:100F0000FF30C8F80000D5E9027007EB8020874267
:100F100028D242F21004C4F202044FF0000900BFCC
:100F2000C6F81C90206840F00200206067602068CE
:100F300040F0400020604CF25030FFF787F9216804
:100F400021F00201216098B9D5E9020107F5806717
:100F500000EB81208742E3D300200021317601B0ED
:100F6000BDE8F08301200021317601B0BDE8F083B7
:100F7000C8F800700021317601B0BDE8F0830000B0
:100F800042F21001C4F20201086840F08002002021
:100F90000A6070472DE9F04F81B040F2B009C2F20B
:100FA0000009924699F81820012A03D1022001B0C5
:100FB000BDE8F08F8046012089F818004CF25030CF
:100FC0009B460E46FFF742F9A0BB404642F210078F
:100FD000B8F1020F18BF0420C4F20207B8F1010FE4
:100FE00008BF404645424FF000080024C4F12001EC
:100FF000C9F81C802AFA04F00BFA01F13A68084398
:10100000B4F1200158BF2BFA01F042F00101396020
:1010100026F8020B4CF25030FFF718F93968013509
:1010200021F0010248F100013A6018B9002904F1E9
:101030001004DBD0002189F8181001B0BDE8F08F52
:1010400042F20400C4F20200C16809065CBF00203D
:10105000704740F22311C4F26751016048F6AB11AA
:10106000CCF6EF510160C068C0B2C0097047000003
:101070002DE9F04F82B00E68002E00F0038141F29E
:101080000042C4F20102042340F2004E904208BF25
:1010900003234FF6FF7CC4F2010E009300240123CA
:1010A000C1F2100C4FF0000A4FF0000949E000BFF8
:1010B000012704F00C030F229A402BEA020207FAE0
:1010C00003F34FEA9A051A4346F82520D1F804B0F5
:1010D00040F20C455FEACB22DEF8082054BF22EA3A
:1010E000080242EA0802C4F20105CEF808202A6884
:1010F0005FEA8B2354BF22EA080242EA08022A6010
:101100005FEA8B33DEF8042054BF22EA080242EA89
:1011100008025FEACB33CEF80420DEF800204FF05F
:10112000010354BF22EA080242EA0802CEF8002076
:101130000E680AF1010A36FA0AF204F1040400F01A
:10114000A18003FA0AF816EA080FF1D04E68664546
:1011500012DC122E56D8DFE806F0350B45495555FE
:1011600055555555555555555555554D510000BF7B
:10117000D1F80C9046E000BF4FF6FF72C1F2210299
:1011800096420FDC0022C1F2110296421AD00022D0
:10119000C1F21202964215D00022C1F221029642FB
:1011A00010D02FE00022C1F2220296420AD0002283
:1011B000C1F23102964205D00022C1F232029642BB
:1011C00020D100BF8A684AB1012A14BFC0F8148038
:1011D000C0F810804FF0080914E000BF4FF0040978
:1011E00010E000BFCA6802F108090BE04FF00009E7
:1011F00008E000BFCA6802F1040903E0CA6802F10E
:101200000C0900BF22460646BAF1080F24BF203A57
:10121000043637680F25954027EA050509FA02F2DA
:101220002A433260CA79D2067FF582AF41F21803B1
:10123000C4F202031A68AEF57E7642F001021A602B
:101240001A6802F001020192019A2AF0030256F88C
:1012500002B040F60002C4F20102904210D040F603
:101260000042C4F2010290423FF422AF41F2000278
:10127000C4F20102009F904208BF022719E700BF95
:10128000002716E702B0BDE8F08F000040F2D00062
:10129000C2F200000068704740F20C0040F2D0013A
:1012A000C2F20000C2F2000100780A68104408602F
:1012B0007047000080B542F20000C4F202000168ED
:1012C00041F010010160032000F08EF80F2000F0C3
:1012D00005F800F027F8002080BD000070B540F24E
:1012E0000C06C2F2000640F214013278C2F200018C
:1012F0004FF47A730968B3FBF2F20446B1FBF2F1E2
:10130000084600F03BFB0F2C4FF0010508D838B918
:101310004FF0FF3021460022002500F039F87460BC
:10132000284670BD82B041F21800C4F20200016884
:10133000022241F001010160016801F00101019107
:101340000199416841F080514160406800F080504F
:10135000009000980420C4F20100016862F31A6151
:10136000016002B070470000002848BF7047C1B25A
:1013700000F01F00012202FA00F04EF20012CEF23D
:10138000000242EAD10121F0030108607047000029
:1013900010B54EF60C5CCEF2000CDCF80030C3F356
:1013A000022E8EF00704042C28BF0424BEF1030390
:1013B0004FF0FF3E0EFA04F438BF0023A1439940DA
:1013C0000EFA03F39A43114300F00F0200F1604359
:1013D0000901043A03F564436244002848BF02F15E
:1013E0000C03197010BD00004EF60C51CEF2000136
:1013F0000A684FF6FF031A4060F30A2242F0806049
:1014000040F0FD70086070472DE9F04381B000287E
:1014100000F0858042F20008C4F202080446D8F8C1
:1014200000000D4600F0070088420CD2D8F80000FA
:1014300020F007002843C8F80000D8F8000000F0AA
:101440000700A8426BD1206841F204098107C4F269
:10145000020917D5410705D5D9F8001041F4E0611C
:10146000C9F80010010705D5D9F8001041F4605102
:10147000C9F80010D9F80010A26821F0F00111435A
:10148000C9F80010C00741D1D8F8000000F00700EB
:10149000A8420CD9D8F8000020F007002843C8F86B
:1014A0000000D8F8000000F00700A84237D12068FB
:1014B000410707D5D9F80010E26821F4E061114333
:1014C000C9F80010000708D5D9F80000216920F4F8
:1014D000605040EAC100C9F80000D9F8002002F0CD
:1014E0000C00082841F20020C0F27A0050D141F6E9
:1014F000F663C2F38341C0F60003595CD2033BD4C8
:1015000040F60010C0F23D00484341E06068022808
:101510000AD001282AD159F8041C890308D40120D3
:1015200001B0BDE8F08300BF59F8041C8901F6D56D
:10153000D9F8001021F003010843C9F80000FFF7B3
:10154000A5FE064641F28837D9F80000616800F030
:101550000C00B0EB810F97D0FFF798FE801BB842CC
:10156000F2D9032001B0BDE8F08300BF59F8041C94
:101570008907D4D5DCE700BFD9F8002041F6F46331
:10158000C2F34042C0F600039A5C4843B0FBF2F05D
:10159000D9F8001041F6E462C1F30311C0F600026D
:1015A000515C40F2140220FA01F140F21000C2F244
:1015B00000000068C2F200021160FFF78FFE0020F9
:1015C00001B0BDE8F08300002DE9F04182B00028B1
:1015D00068D00446007841F20006C007C4F2020653
:1015E00025D0706800F00C0004281BD0706800F053
:1015F0000C00082802D17068C00313D4606800286A
:1016000000F06881B0F5A02F00F07C81B0F5803F3C
:1016100000F07C81306820F480303060306820F445
:10162000802076E13068800301D56068D0B32078EF
:10163000800718D5706810F00C0F07D0706800F0A4
:101640000C0008286ED17068C0036BD43068800726
:1016500002D52069012825D13068616920F0F800A1
:1016600040EAC1003060207800071FD4207840078E
:1016700032D4E56995B1706800F00C00082840F09C
:101680008F80012D0ED07068216A00F480328A426A
:1016900008D1616A00F47010884203D1002002B0C2
:1016A000BDE8F081012002B0BDE8F081A06900280A
:1016B00062D00020C4F242200121C0F88014FFF75C
:1016C000E5FD0546706A800700F18C80FFF7DEFDBE
:1016D000401B0228F6D92AE1F06910F0805808D1A1
:1016E000F06940F08050F061F06900F080500090A7
:1016F000009847F20007C4F200073868C00529D4F3
:10170000386840F480703860FFF7C0FD054600BFC0
:101710003868C0051ED4FFF7B9FD401B6428F7D90F
:1017200005E100BF2069002840F20000C4F2422019
:1017300000F0828001210160FFF7A8FD054600BF8F
:10174000306880073FF588AFFFF7A0FD401B0228F7
:10175000F6D9ECE0E068002800F08080052800F071
:101760009780012800F09880306A20F001003062F4
:10177000306A20F0040092E00020C4F242200021F0
:10178000C0F88014FFF782FD054600BF706A80072D
:101790007FF56CAFFFF77AFD401B0228F6D9C6E053
:1017A0000027C4F2422700203866FFF76FFD022DA4
:1017B00005460BD13068800140F1BE80FFF766FD21
:1017C000401B02284FF00300F4D968E7306880011D
:1017D0007FF564AFFFF75AFD401B02284FF003006E
:1017E000F4D95CE740F21400C2F20000006844F64D
:1017F000D351C1F26201A0FB0101480A019000BF70
:1018000000BF0198411E002801913FF42FAF00BF97
:101810000198411E002801913FF428AF00BF0198B4
:10182000411E002801913FF421AF00BF0198411EE5
:1018300000280191E4D119E700210160FFF726FD9E
:10184000054600BF306880077FF50DAFFFF71EFD2E
:10185000401B02284FF00300F4D920E7306A20F043
:1018600001003062306A20F004003062FFF70EFDA4
:10187000054641F2883700BF306A800720D5FFF760
:1018800005FD401BB8424FF00300F5D907E700BF44
:10189000306A40F004003062306A40F0010030628B
:1018A000FFF7F4FC054641F2883700BF306A800735
:1018B00006D4FFF7EBFC401BB842F7D937E000BF76
:1018C000B8F1000F7FF4D5AEF06920F08050F061E0
:1018D000CFE600BF306820F480303060306820F4FC
:1018E00080203060FFF7D2FC054600BF30688003DF
:1018F0007FF59DAEFFF7CAFC401B64284FF0030044
:10190000F4D9CCE6306840F480203060306840F490
:1019100080303060FFF7BAFC054600BF30688003B6
:101920003FF585AEFFF7B2FC401B6428F6D90320D3
:1019300002B0BDE8F08100BF206AB0F5803F05D15C
:101940007168A26821F40031114371607168626AA4
:1019500021F4741111430843706001203866FFF7C9
:1019600095FC0446306880013FF598AEFFF78EFC89
:10197000001B02284FF00300F4D990E6411E00201E
:10198000B0EB116F1CBF012070474EF21002CEF277
:10199000000251604EF62351CEF20001F0230B708D
:1019A0000721906011607047FEE70000FEE700002D
:1019B000FEE700007047000070470000FFF76CBCB6
:1019C0007047000040F28800C2F20000FEF72CBE13
:1019D000FEE7000090B0FFF76DFC00240120CDE988
:1019E0000B44CDE9094406900A904FF4E0104FF4FF
:1019F000803102250F9006A8CDE90714CDE90D51DD
:101A0000FFF7E2FD20B1EFF3108072B6FEE700BFF2
:101A10000F20CDE901054FF48060CDE9040401A851
:101A200002210394FFF7F0FC20B1EFF3108072B6AF
:101A3000FEE700BF41F21800C4F20200016840F264
:101A4000780541F0200101600168C2F2000501F053
:101A50002001069106990168002241F0040101600D
:101A6000006846F2004100F0040006900698C4F2B7
:101A70000001284640F8101F0921C0E9011200F1B9
:101A80000C014FF400334FF440141CC18261828377
:101A9000FEF7FAFE20B1EFF3108072B6FEE700BF4A
:101AA00005F110042046FFF7B7F928B1EFF31080D5
:101AB00072B600BFFEE700BF0020CDE90B00012198
:101AC000CDE90600CDE908000A900E20CDE90D1100
:101AD0000F9006A92046FEF795FC28B1EFF3108081
:101AE00072B600BFFEE700BF20460221FEF71EFCD3
:101AF00020B1EFF3108072B6FEE700BFFFF7A0FA47
:101B000040F20004C2F200040020616806902F2019
:101B10000891099006A801A9FFF7BAF96878012889
:101B2000FCD161684868421C04D0096881F30888C8
:101B30008047F3E7FEE700004FF47F0C1CEAD01269
:101B40001EBF1CEAD11392EA0C0F93EA0C0F00F0AF
:101B5000858090EA010F48BF42F4807240F4000C87
:101B600041F400002CF07F4120F07F4000B5A2EB53
:101B7000030281420FF2081CACEB504E9EF800E0CD
:101B8000C0F100004FEA4E0E00FB0EFC38BF4900CA
:101B90004FEA2C1C0CFB0EF34FEACE1E0EEB635EDD
:101BA0004FEA112C0EFB0CFC4FEAC1214FEA1C53EB
:101BB00000FB031102F5FA024FEA112C0EFB0CFC9C
:101BC0004FEA01314FEADC4C00FB0C1142EB2242A0
:101BD000C14228BF09184CEB03335DF804EB10EB4E
:101BE000410143EBC250B2F57C0F38BF704729D595
:101BF00012F0F00F1CBF00F1C04000F00040704731
:101C0000008182838485868788898B8C8D8E8F91D5
:101C10009293959697999A9C9D9FA0A2A3A5A7A8F9
:101C2000AAACAEB0B2B3B5B7B9BCBEC0C2C5C7C925
:101C3000CCCED1D4D7D9DCDFE2E6E9ECF0F3F7FA89
:101C4000FE0000004FEA400C0CF1807CBCF17E4F9E
:101C500028BF7047B0F1C04000F03FB90CEAD11383
:101C600090EA010F48BF42F48072624538BF634575
:101C700007D213F47F0F16D080EA010000F0004075
:101C8000704710B500F0E3F8097EFC3E00F005B89F
:101C900080EA010000F00040704780EA010000F097
:101CA000004000F01AB912F47F0F04BF02487047D9
:101CB00080EA010000F011B90000C07F41000B0E66
:101CC000D3F19E0208D950F400034FEA032323FA0C
:101CD00002F048BF4042704710B500F0B8F800BFAE
:101CE00049922480002070476FF0004282EA200071
:101CF0007047000010F0004148BF4042B0FA80F346
:101D000010FA03F2C3F19D030BD051EAC35101EB6A
:101D10001220530638BF704700F1010008BF20F0C1
:101D200001007047B0FA80F310FA03F2C3F19D038B
:101D30000AD0D90501EB1220530638BF704700F1D5
:101D4000010008BF20F00100704700004FF47F0C35
:101D50001CEAD0121EBF1CEAD11392EA0C0F93EAC0
:101D60000C0F00F0478090EA010F48BF42F48072E8
:101D70004FF0004C4CEA00204CEA012102EB030238
:101D8000A0FB0113A2F50002002918BF43F00103D4
:101D90005B0028BF4FEA330342EB22425FEA132C79
:101DA0004CEBC2502EBFBCEB436FB2F57C0F7047BB
:101DB0004FEA036CBCF1004F08BF20F00100B2F500
:101DC0007C0F38BF70470BD582F0FF0212F5803FC1
:101DD000C8BF704700F1C040D8BF00F00040704756
:101DE00000F5000C5FEA4C0C48BF7047B0F1C040F2
:101DF00000F073B80CEAD11390EA010F48BF42F427
:101E00008072624538BF634504D280EA010000F069
:101E10000040704710B500F01AF800BF8900013E7D
:101E200000F007B800F009B85FEA410C5FEA1C6CEB
:101E300008D080EA010000F050B85FEA400C5FEA89
:101E40001C6CF6D14FF00040A0F5800070470EF1F9
:101E5000020E2EF0030E5EF8044B244204D44FEA27
:101E60004102B2F17F4F11D84FEA4003B3F17F4FE7
:101E70000CD80ED14FEAD07C0CEB4C0C0CF1020CC0
:101E8000B2F17F4F08BF4CEBD17C04E04FF0080C5F
:101E900001E04FEAD17C0CEB4C0324FA03F404F08C
:101EA0000704B4F1040C06D20EEB840CBDE810401C
:101EB0004CF0010C6047DFE80CF0070802024FF01D
:101EC0000040A0F5800010BD0846420018BFD2F1C6
:101ED000807288BF00F0004010BDFF2141EAD05061
:101EE000C00570470000000000000000010203046C
:101EF00006070809010202030405060708090A0B80
:101F00000C0D0E0F10100000281F0008000000200C
:101F10001800000028010008401F000818000020D9
:101F2000C006000044010008FF0000000020000877
:101F30000100000001000000100000000024F40077
:04000005080000ED02
:00000001FF
