:020000040800F2
:10000000F006002089010008C5140008BD1400088E
:10001000C114000845020008E514000800000000B3
:10002000000000000000000000000000CD140008E7
:100030004902000800000000C9140008D11400089B
:10004000A3010008A3010008A3010008A301000800
:10005000A3010008A3010008A3010008A3010008F0
:10006000A3010008A3010008A3010008A3010008E0
:10007000A3010008A3010008A3010008A3010008D0
:10008000A3010008A3010008A3010008A3010008C0
:10009000D9140008A3010008A3010008A301000867
:1000A000A3010008A3010008A3010008A3010008A0
:1000B000A3010008A3010008A3010008A301000890
:1000C000A3010008A3010008A3010008A301000880
:1000D000A3010008A3010008A3010008A301000870
:1000E000A3010008A3010008A301000800F002F822
:1000F00000F03AF80AA090E8000C82448344AAF188
:100100000107DA4501D100F02FF8AFF2090EBAE885
:100110000F0013F0010F18BFFB1A43F0010318473B
:100120002819000048190000103A24BF78C878C187
:10013000FAD8520724BF30C830C144BF04680C60ED
:10014000704700000023002400250026103A28BF35
:1001500078C1FBD8520728BF30C148BF0B60704739
:100160001FB51FBD10B510BD00F031F81146FFF7E7
:10017000F7FF01F0B9F900F04FF803B4FFF7F2FF11
:1001800003BC00F057F800000948804709480047C1
:10019000FEE7FEE7FEE7FEE7FEE7FEE7FEE7FEE737
:1001A000FEE7FEE704480549054A064B7047000094
:1001B000D5140008ED000008F0000020F006002033
:1001C000F0020020F002002070477047704775462B
:1001D00000F02CF8AE4605006946534620F00700B3
:1001E000854618B020B5FFF7DDFFBDE820404FF091
:1001F00000064FF000074FF000084FF0000BAC4630
:10020000ACE8C009ACE8C009ACE8C009ACE8C0097A
:1002100021F007018D46704710B50446AFF300800A
:100220002046BDE81040FFF7A8BF00000048704717
:100230002800002001491820ABBEFEE7260002007E
:1002400070470000FEE700007047000070B542F202
:100250000C060446C4F2020600F0B6FD3168C90778
:1002600018D13068800644BF202030603068C00656
:1002700007D43069C00704D1306840075CBF002054
:1002800070BD3068C00623D40020316849072BD4E4
:1002900034E000BF002C47D00546601C0ED130680A
:1002A000C007DED03068C0071CBF30685FEAC0708E
:1002B000D7D03068C007F2D1D3E700BF00F084FD8B
:1002C000401BA04230D83068C007F7D1C9E700BF53
:1002D00040F2C800C2F20000C16941F00201C161F0
:1002E00010203168490709D540F2C801C2F2000167
:1002F000CA6940F0040042F00102CA613169C907CD
:1003000002D13060012070BD40F2C801C2F200018C
:10031000CA6942F00402CA61316921F00101316108
:100320003060012070BD00BF032070BD10B590F893
:1003300020E0D0F800C0AEF1010EBEF1010FDCF8F4
:1003400008E011D81EF0E05F18D0CEF3016E012056
:1003500000FA0EF018608B68D3B14868CC6844EAA4
:10036000C000034318E000BF00F1240101204FF456
:1003700080220B681A430A6010BD00BF00F12401FF
:1003800001204FF400120B681A430A6010BD00BF31
:100390000868CB6843EA40530CEB0E10C0F880317C
:1003A0000B69C0F88431097D012905D100F5C271BE
:1003B0000B6843F480730B605168C0F88C111268AD
:1003C00000F5C071C0F88821002001220B681A4393
:1003D0000A6010BD7047000010B590F82040013C45
:1003E000012C7BD8D0F800C0002900F08180DCF817
:1003F0001040A40700F081800CEB011CDCF8B04138
:100400000CF5D87E14F004049460DCF8B04119BFF8
:10041000E4085460640D1460DEF800400CF5DA7EE8
:1004200004F00204D460DCF8B44124075ABFDEF8BB
:10043000004004F00F0408241461DEF80040002995
:10044000C4F307249461DEF800404FEA1444546179
:10045000DCF8B8211A70026802EB0112D2F8B82158
:100460004FEA12225A70026802EB0112D2F8B82148
:100470004FEA12429A70026802EB0112D2F8B821D8
:100480004FEA1262DA70026802EB0112D2F8BC2164
:100490001A71026802EB0112D2F8BC214FEA122253
:1004A0005A71026802EB0112D2F8BC214FEA1242E3
:1004B0009A71026802EB0112D2F8BC214FEA126273
:1004C000DA71006814BF00F1100100F10C01002086
:1004D00020220B681A430A6010BD00BF00F12401FE
:1004E00001204FF480220B681A430A6010BD00BF40
:1004F000DCF80C40A4077FF47FAF00F12401012059
:100500004FF400120B681A430A6010BD2DE9F04F3A
:1005100081B0044600684669D0F804908768D0F836
:100520000CB0D0F810A0D0F81880F10704D1002545
:1005300030071DD424E000BFF90710D00121BA070D
:10054000816009D4780700F1AF80380700F1B680E8
:10055000204600F027FB02E0204600F025FB0025A6
:10056000F80500F18780F80300F1B180300707D566
:100570001BF0100004D0206845F400751021C16004
:10058000700708D51BF0080005D020680821C1605D
:10059000204600F0EBF8B00706D52068C068800759
:1005A00002D0204600F0E4F8700607D51AF01000DB
:1005B00004D0206845F4806510210161B00608D59B
:1005C0001AF0080005D0206808210161204600F0DB
:1005D000E3FAF00606D520680069800702D02046BD
:1005E00000F0DCFAB00308D519F0100005D020683F
:1005F00010214160204600F0D3FAF00308D519F02D
:10060000080005D0206808214160204600F0D6FA95
:10061000300440F19B805FEA497040F1948006F419
:10062000807008EA102028435FEA8871014648BFBD
:1006300041F00201B20558BF01465FEA48700D461D
:1006400048BF45F00405700558BF0D46300540F120
:100650007A8018F0700000F07680103800090528C4
:100660006CD8DFE800F003595D61656945F0080565
:1006700064E000BF20684FF48071BA0581600BD43C
:10068000780515D438051DD4204600F08FFAF803FC
:100690007FF56CAF1BE000BF204600F089FAF8033D
:1006A0007FF564AF13E000BF4FF4006558E700BF6B
:1006B00005F50055F8037FF559AF08E04FF4805574
:1006C0004EE700BF05F58045F8037FF54FAF206882
:1006D0004FF48031BA0381600AD4780310D4380310
:1006E00014D4204600F066FA30073FF541AF47E7E3
:1006F000204600F061FA30073FF53AAF40E700BF0F
:1007000005F5004530073FF533AF39E705F580358E
:1007100030073FF52DAF33E745F010050EE000BF81
:1007200045F020050AE000BF45F0400506E000BFA7
:1007300045F0800502E000BF45F4807520688169BE
:1007400021F07001816120680421416055B1606A27
:1007500040EA05012046616201B0BDE8F04FFFF7B5
:1007600039BE00BF01B0BDE8F08F00007047000047
:100770002DE9F04F91B06C4603AA00212346FFF704
:100780002BFE039840F2880A0128C2F2000A19D110
:100790000F2000F041FB01204FF0010800F010FA9B
:1007A00000F012FB079ACAF81400511E4BB2002B3E
:1007B00057D4DAF80C00CBB2032B02F0030C05D2AD
:1007C00001222FE09AF800804EE000BF02F0FC0703
:1007D000002601224FF0640E4FF47A7942F2107B2A
:1007E000CDB2655D4B1EDBB2E35C02FB05008D1EE6
:1007F000EDB25343655D03EB830300EB430002FB63
:1008000005F3CD1EEDB2655D03FB0E0002FB05F3A3
:10081000043603FB0900F3B202FB0BF2BB42A1F169
:100820000401DDD1BCF1000F19D0CBB2E35CBCF107
:10083000010F02FB030012D04B1EDBB2E35CBCF1E4
:10084000020F02FB03F303EB830300EB430006D02C
:100850000239C9B2615C5143642201FB0200CAF84B
:100860000C0003988AF80080022808BFB8F1010F35
:1008700002D011B0BDE8F08F0F2000F0CDFA0120BA
:10088000012500F09DF900F09FFA40F20008C2F245
:100890000008D8F81010DAF80C20CAF81400B2EBEF
:1008A000C10F41D9079D00F077FA00BB4FF6FE70EB
:1008B00005421AD0BAF80800C5F34E05013400BF4E
:1008C000DAF8101034F8012C80B201440120002322
:1008D00000F00CFA58B9BAF80800013D00F1020026
:1008E00004F10204AAF80800EAD100F0F5F9DAF8F8
:1008F0000C0000F09FFFBAF80650044698F80090EC
:1009000028466F1C00F0AEFF214600F0B5FE002126
:10091000C4F2C82100F0BAFF00F070FF31281DDCDE
:1009200000B319281ED020E06420524602F8020FBE
:100930004FF48070CDE90B050020CDE90D008DF856
:10094000400002F116000BA90AAB0F95FFF7EEFC71
:1009500000B3EFF3108072B6FEE700BF4B2801D062
:10096000322802D1814540F0C880B8B2AE1C00F0F8
:1009700079FF214600F080FE0021C4F2C82100F07A
:1009800085FF00F03BFF312832DCA8B3192833D0B3
:1009900035E000BF079D00F0FFF900BB4FF6FE7089
:1009A00005421AD0BAF80800C5F34E05013400BF5D
:1009B000DAF8101034F8012C80B201440120002331
:1009C00000F094F958B9BAF80800013D00F10200AE
:1009D00004F10204AAF80800EAD100F07DF900F061
:1009E00011FE01208AF8010011B0BDE8F08F00BFB0
:1009F0004B2801D0322802D1814540F07D80B0B231
:100A0000EF1C00F02FFF214600F036FE0021C4F25B
:100A1000C82100F03BFF00F0F1FE312804DC38B1C2
:100A2000192805D006E000BF4B2801D0322801D19B
:100A3000814562D1B8B22E1D00F014FF214600F0AE
:100A40001BFE0021C4F2C82100F020FF00F0D6FEFA
:100A5000312803DC30B1192804D005E04B2801D03F
:100A6000322801D1814547D1B0B26F1D00F0FAFEA6
:100A7000214600F001FE0021C4F2C82100F006FF6B
:100A800000F0BCFE312803DC30B1192804D005E0A9
:100A90004B2801D0322801D181452ED1B8B2AE1DEC
:100AA00000F0E0FE214600F0E7FD0021C4F2C8217D
:100AB00000F0ECFE00F0A2FE312803DC30B1192872
:100AC00004D005E04B2801D0322801D1814513D153
:100AD000B0B2EF1D00F0C6FE214600F0CDFD0021B2
:100AE000C4F2C82100F0D2FE00F088FE312821DCDB
:100AF00020B3192822D023E03746524602F8020FCD
:100B000088F800004FF480700B90012000210C90B9
:100B1000CDE90D110F908DF8401002F116000BA9D0
:100B20000AAB9780FFF702FC30B3EFF3108072B688
:100B3000FEE700BF4B2801D0322801D18145DCD12E
:100B4000B8B2083500F08EFE214600F095FD002178
:100B5000C4F2C82100F09AFE00F050FE312803DCF8
:100B600030B1192804D005E04B2801D0322801D13A
:100B700081450FD1AAF80650D8F81000BAF8041031
:100B80000130C8F81000481CAAF8040011B0BDE8F4
:100B9000F08F00BF2F46B0E770470000704700009D
:100BA0007047000070470000704700007047000069
:100BB0007047000070470000704700007047000059
:100BC000B0B5044600F000F9054640F21800C2F244
:100BD00000000078611C18BF044400BF00F0F4F866
:100BE000401BA042FAD3B0BD2DE9F04381B040F2E2
:100BF000C806C2F20006327E012A03D1022001B0EB
:100C0000BDE8F083054601202C6830764CF2503068
:100C10008846FFF71BFB022C1CD100284ED1002078
:100C200042F21004F061C4F20204206840F00400B3
:100C30002060206840F0400020604CF25030FFF708
:100C400005FB216821F0040121600021317601B00B
:100C5000BDE8F08390BB4FF0FF30C8F80000D5E945
:100C6000027007EB8020874228D242F21004C4F2BF
:100C700002044FF0000900BFC6F81C90206840F045
:100C8000020020606760206840F0400020604CF265
:100C90005030FFF7DBFA216821F00201216098B99A
:100CA000D5E9020107F5806700EB81208742E3D395
:100CB00000200021317601B0BDE8F0830120002141
:100CC000317601B0BDE8F083C8F8007000213176BC
:100CD00001B0BDE8F083000042F21001C4F202014D
:100CE000086840F0800200200A6070472DE9F04F4C
:100CF00081B040F2C809C2F20009924699F8182062
:100D0000012A03D1022001B0BDE8F08F8046012006
:100D100089F818004CF250309B460E46FFF796FAC1
:100D2000A0BB404642F21007B8F1020F18BF0420E2
:100D3000C4F20207B8F1010F08BF404645424FF028
:100D400000080024C4F12001C9F81C802AFA04F02C
:100D50000BFA01F13A680843B4F1200158BF2BFAAD
:100D600001F042F00101396026F8020B4CF25030DC
:100D7000FFF76CFA3968013521F0010248F10001F2
:100D80003A6018B9002904F11004DBD0002189F879
:100D9000181001B0BDE8F08F42F20400C4F2020066
:100DA000C16809065CBF0020704740F22311C4F2FD
:100DB0006751016048F6AB11CCF6EF510160C06895
:100DC000C0B2C0097047000040F2E800C2F2000063
:100DD0000068704740F2180040F2E801C2F20000DB
:100DE000C2F2000100780A681044086070470000F1
:100DF00080B542F20000C4F20200016841F0100127
:100E00000160032000F07AF80F2000F005F800F0F0
:100E100027F8002080BD000070B540F21806C2F22D
:100E2000000640F220013278C2F200014FF47A73DA
:100E30000968B3FBF2F20446B1FBF2F1084600F098
:100E400027FB0F2C4FF0010508D838B94FF0FF30C1
:100E500021460022002500F025F87460284670BD68
:100E600082B041F21800C4F202000168022241F08F
:100E700001010160016801F00101019101994168DE
:100E800041F080514160406800F08050009000982F
:100E90000420C4F20100016862F31A61016002B02B
:100EA0007047000010B54EF60C5CCEF2000CDCF87A
:100EB0000030C3F3022E8EF00704042C28BF042454
:100EC000BEF103034FF0FF3E0EFA04F438BF0023D7
:100ED000A14399400EFA03F39A43114300F00F0225
:100EE00000F160430901043A03F5644362440028B9
:100EF00048BF02F10C03197010BD00004EF60C51F2
:100F0000CEF200010A684FF6FF031A4060F30A228E
:100F100042F0806040F0FD70086070472DE9F043BA
:100F200081B0002800F0858042F20008C4F2020877
:100F30000446D8F800000D4600F0070088420CD2A5
:100F4000D8F8000020F007002843C8F80000D8F8BF
:100F5000000000F00700A8426BD1206841F20409AC
:100F60008107C4F2020917D5410705D5D9F8001049
:100F700041F4E061C9F80010010705D5D9F8001067
:100F800041F46051C9F80010D9F80010A26821F0AE
:100F9000F0011143C9F80010C00741D1D8F8000092
:100FA00000F00700A8420CD9D8F8000020F0070094
:100FB0002843C8F80000D8F8000000F00700A84255
:100FC00037D12068410707D5D9F80010E26821F42D
:100FD000E0611143C9F80010000708D5D9F80000F6
:100FE000216920F4605040EAC100C9F80000D9F836
:100FF000002002F00C00082841F20020C0F27A0024
:1010000050D141F63623C2F38341C0F60003595C48
:10101000D2033BD440F60010C0F23D00484341E00B
:10102000606802280AD001282AD159F8041C8903D3
:1010300008D4012001B0BDE8F08300BF59F8041CBA
:101040008901F6D5D9F8001021F003010843C9F849
:101050000000FFF7B9FE064641F28837D9F80000D4
:10106000616800F00C00B0EB810F97D0FFF7ACFE89
:10107000801BB842F2D9032001B0BDE8F08300BF65
:1010800059F8041C8907D4D5DCE700BFD9F8002043
:1010900041F63423C2F34042C0F600039A5C484351
:1010A000B0FBF2F0D9F8001041F62422C1F303118D
:1010B000C0F60002515C40F2200220FA01F140F239
:1010C0001C00C2F200000068C2F200021160FFF7CB
:1010D000A3FE002001B0BDE8F08300002DE9F0413F
:1010E00082B0002868D00446007841F20006C007AC
:1010F000C4F2020625D0706800F00C0004281BD052
:10110000706800F00C00082802D17068C00313D486
:101110006068002800F06881B0F5A02F00F07C81A5
:10112000B0F5803F00F07C81306820F48030306082
:10113000306820F4802076E13068800301D5606853
:10114000D0B32078800718D5706810F00C0F07D046
:10115000706800F00C0008286ED17068C0036BD472
:101160003068800702D52069012825D1306861697F
:1011700020F0F80040EAC1003060207800071FD45A
:101180002078400732D4E56995B1706800F00C0012
:10119000082840F08F80012D0ED07068216A00F47D
:1011A00080328A4208D1616A00F47010884203D10B
:1011B000002002B0BDE8F081012002B0BDE8F0815E
:1011C000A069002862D00020C4F242200121C0F8AA
:1011D0008014FFF7F9FD0546706A800700F18C80E6
:1011E000FFF7F2FD401B0228F6D92AE1F06910F062
:1011F000805808D1F06940F08050F061F06900F04B
:1012000080500090009847F20007C4F20007386849
:10121000C00529D4386840F480703860FFF7D4FDE9
:10122000054600BF3868C0051ED4FFF7CDFD401B42
:101230006428F7D905E100BF2069002840F20000CA
:10124000C4F2422000F0828001210160FFF7BCFD62
:10125000054600BF306880073FF588AFFFF7B4FD53
:10126000401B0228F6D9ECE0E068002800F08080FE
:10127000052800F09780012800F09880306A20F05F
:1012800001003062306A20F0040092E00020C4F2D5
:1012900042200021C0F88014FFF796FD054600BFEC
:1012A000706A80077FF56CAFFFF78EFD401B022848
:1012B000F6D9C6E00027C4F2422700203866FFF7BF
:1012C00083FD022D05460BD13068800140F1BE80C0
:1012D000FFF77AFD401B02284FF00300F4D968E7BE
:1012E000306880017FF564AFFFF76EFD401B022878
:1012F0004FF00300F4D95CE740F22000C2F2000096
:10130000006844F6D351C1F26201A0FB0101480A12
:10131000019000BF00BF0198411E002801913FF4D9
:101320002FAF00BF0198411E002801913FF428AF64
:1013300000BF0198411E002801913FF421AF00BF7A
:101340000198411E00280191E4D119E700210160B4
:10135000FFF73AFD054600BF306880077FF50DAF07
:10136000FFF732FD401B02284FF00300F4D920E7BD
:10137000306A20F001003062306A20F004003062F0
:10138000FFF722FD054641F2883700BF306A80072B
:1013900020D5FFF719FD401BB8424FF00300F5D9E7
:1013A00007E700BF306A40F004003062306A40F066
:1013B00001003062FFF708FD054641F2883700BFA3
:1013C000306A800706D4FFF7FFFC401BB842F7D90C
:1013D00037E000BFB8F1000F7FF4D5AEF06920F020
:1013E0008050F061CFE600BF306820F4803030607C
:1013F000306820F480203060FFF7E6FC054600BF2F
:10140000306880037FF59DAEFFF7DEFC401B64284B
:101410004FF00300F4D9CCE6306840F4802030600F
:10142000306840F480303060FFF7CEFC054600BFE6
:10143000306880033FF585AEFFF7C6FC401B64288B
:10144000F6D9032002B0BDE8F08100BF206AB0F5F4
:10145000803F05D17168A26821F4003111437160A9
:101460007168626A21F474111143084370600120AD
:101470003866FFF7A9FC0446306880013FF598AE56
:10148000FFF7A2FC001B02284FF00300F4D990E6FE
:10149000411E0020B0EB116F1CBF012070474EF2BF
:1014A0001002CEF2000251604EF62351CEF200013E
:1014B000F0230B700721906011607047FEE7000079
:1014C000FEE70000FEE700007047000070470000E4
:1014D000FFF780BC7047000040F2A000C2F200009D
:1014E000FFF714B8FEE7000090B0FFF781FC00247E
:1014F0000120CDE90B44CDE9094406900A904FF450
:10150000E0104FF4803102250F9006A8CDE90714B2
:10151000CDE90D51FFF7E2FD20B1EFF3108072B677
:10152000FEE700BF0F20CDE901054FF48060CDE953
:10153000040401A802210394FFF7F0FC20B1EFF3AB
:10154000108072B6FEE700BF41F21800C4F202003C
:10155000016840F2000441F0200101600168C2F21C
:10156000000401F0200106910699016840F2880507
:1015700041F0040101600068C2F2000500F00400BF
:1015800006900698E0680078FF2818BF012805D16A
:10159000A0682861FFF700FCA16805E068B96068F1
:1015A0002861FFF7F9FB6168002006903B20089155
:1015B000099006A801A9FFF717FBFFF705FC686172
:1015C0000AE000BF002808BFA06841684A1C17D085
:1015D000006880F3088888476878012806D0FFF7FC
:1015E000F3FB69696269401A9042F5D3E0680078BC
:1015F000FF2818BF0128E5D1606841684A1CE7D17F
:10160000FEE7000010B586B040F20004C2F200040C
:10161000E0680078FF2818BF012815D1FFF7BCFB50
:101620000020E168029001200491059002A801A920
:10163000FFF7DAFAE168012000220023FFF756FBEA
:10164000FFF74AFB06B010BD0028FBD1FFF7A4FB53
:101650000020E168029001200491059002A801A9F0
:10166000FFF7C2FAE168012001220023FFF73EFBE9
:10167000FFF732FB06B010BD4FF47F0C1CEAD0120E
:101680001EBF1CEAD11392EA0C0F93EA0C0F00F074
:10169000858090EA010F48BF42F4807240F4000C4C
:1016A00041F400002CF07F4120F07F4000B5A2EB18
:1016B000030281420FF2081CACEB504E9EF800E092
:1016C000C0F100004FEA4E0E00FB0EFC38BF49008F
:1016D0004FEA2C1C0CFB0EF34FEACE1E0EEB635EA2
:1016E0004FEA112C0EFB0CFC4FEAC1214FEA1C53B0
:1016F00000FB031102F5FA024FEA112C0EFB0CFC61
:101700004FEA01314FEADC4C00FB0C1142EB224264
:10171000C14228BF09184CEB03335DF804EB10EB12
:10172000410143EBC250B2F57C0F38BF704729D559
:1017300012F0F00F1CBF00F1C04000F000407047F5
:10174000008182838485868788898B8C8D8E8F919A
:101750009293959697999A9C9D9FA0A2A3A5A7A8BE
:10176000AAACAEB0B2B3B5B7B9BCBEC0C2C5C7C9EA
:10177000CCCED1D4D7D9DCDFE2E6E9ECF0F3F7FA4E
:10178000FE0000004FEA400C0CF1807CBCF17E4F63
:1017900028BF7047B0F1C04000F03FB90CEAD11348
:1017A00090EA010F48BF42F48072624538BF63453A
:1017B00007D213F47F0F16D080EA010000F000403A
:1017C000704710B500F0E3F8097EFC3E00F005B864
:1017D00080EA010000F00040704780EA010000F05C
:1017E000004000F01AB912F47F0F04BF024870479E
:1017F00080EA010000F011B90000C07F41000B0E2B
:10180000D3F19E0208D950F400034FEA032323FAD0
:1018100002F048BF4042704710B500F0B8F800BF72
:1018200049922480002070476FF0004282EA200035
:101830007047000010F0004148BF4042B0FA80F30A
:1018400010FA03F2C3F19D030BD051EAC35101EB2F
:101850001220530638BF704700F1010008BF20F086
:1018600001007047B0FA80F310FA03F2C3F19D0350
:101870000AD0D90501EB1220530638BF704700F19A
:10188000010008BF20F00100704700004FF47F0CFA
:101890001CEAD0121EBF1CEAD11392EA0C0F93EA85
:1018A0000C0F00F0478090EA010F48BF42F48072AD
:1018B0004FF0004C4CEA00204CEA012102EB0302FD
:1018C000A0FB0113A2F50002002918BF43F0010399
:1018D0005B0028BF4FEA330342EB22425FEA132C3E
:1018E0004CEBC2502EBFBCEB436FB2F57C0F704780
:1018F0004FEA036CBCF1004F08BF20F00100B2F5C5
:101900007C0F38BF70470BD582F0FF0212F5803F85
:10191000C8BF704700F1C040D8BF00F0004070471A
:1019200000F5000C5FEA4C0C48BF7047B0F1C040B6
:1019300000F073B80CEAD11390EA010F48BF42F4EB
:101940008072624538BF634504D280EA010000F02E
:101950000040704710B500F01AF800BF8900013E42
:1019600000F007B800F009B85FEA410C5FEA1C6CB0
:1019700008D080EA010000F050B85FEA400C5FEA4E
:101980001C6CF6D14FF00040A0F5800070470EF1BE
:10199000020E2EF0030E5EF8044B244204D44FEAEC
:1019A0004102B2F17F4F11D84FEA4003B3F17F4FAC
:1019B0000CD80ED14FEAD07C0CEB4C0C0CF1020C85
:1019C000B2F17F4F08BF4CEBD17C04E04FF0080C24
:1019D00001E04FEAD17C0CEB4C0324FA03F404F051
:1019E0000704B4F1040C06D20EEB840CBDE81040E1
:1019F0004CF0010C6047DFE80CF0070802024FF0E2
:101A00000040A0F5800010BD0846420018BFD2F18A
:101A1000807288BF00F0004010BDFF2141EAD05025
:101A2000C005704700000000000000000102030430
:101A300006070809010202030405060708090A0B44
:101A40000C0D0E0F10100000681A00080000002096
:101A50002800000028010008901A00082800002033
:101A6000C806000044010008FF000000002800082C
:101A70000014010800240008010000008813000081
:101A800001000000100000000024F400000000002D
:04000005080000ED02
:00000001FF
